{
  "contractName": "Voting",
  "abi": [
    {
      "inputs": [
        {
          "internalType": "string",
          "name": "name",
          "type": "string"
        },
        {
          "internalType": "string",
          "name": "symbol",
          "type": "string"
        },
        {
          "internalType": "uint256",
          "name": "initialBalance",
          "type": "uint256"
        }
      ],
      "stateMutability": "payable",
      "type": "constructor",
      "payable": true
    },
    {
      "anonymous": false,
      "inputs": [
        {
          "indexed": true,
          "internalType": "address",
          "name": "owner",
          "type": "address"
        },
        {
          "indexed": true,
          "internalType": "address",
          "name": "spender",
          "type": "address"
        },
        {
          "indexed": false,
          "internalType": "uint256",
          "name": "value",
          "type": "uint256"
        }
      ],
      "name": "Approval",
      "type": "event"
    },
    {
      "anonymous": false,
      "inputs": [
        {
          "indexed": true,
          "internalType": "address",
          "name": "previousOwner",
          "type": "address"
        },
        {
          "indexed": true,
          "internalType": "address",
          "name": "newOwner",
          "type": "address"
        }
      ],
      "name": "OwnershipTransferred",
      "type": "event"
    },
    {
      "anonymous": false,
      "inputs": [
        {
          "indexed": true,
          "internalType": "address",
          "name": "from",
          "type": "address"
        },
        {
          "indexed": true,
          "internalType": "address",
          "name": "to",
          "type": "address"
        },
        {
          "indexed": false,
          "internalType": "uint256",
          "name": "value",
          "type": "uint256"
        }
      ],
      "name": "Transfer",
      "type": "event"
    },
    {
      "inputs": [
        {
          "internalType": "address",
          "name": "owner",
          "type": "address"
        },
        {
          "internalType": "address",
          "name": "spender",
          "type": "address"
        }
      ],
      "name": "allowance",
      "outputs": [
        {
          "internalType": "uint256",
          "name": "",
          "type": "uint256"
        }
      ],
      "stateMutability": "view",
      "type": "function",
      "constant": true
    },
    {
      "inputs": [
        {
          "internalType": "address",
          "name": "spender",
          "type": "address"
        },
        {
          "internalType": "uint256",
          "name": "amount",
          "type": "uint256"
        }
      ],
      "name": "approve",
      "outputs": [
        {
          "internalType": "bool",
          "name": "",
          "type": "bool"
        }
      ],
      "stateMutability": "nonpayable",
      "type": "function"
    },
    {
      "inputs": [
        {
          "internalType": "address",
          "name": "account",
          "type": "address"
        }
      ],
      "name": "balanceOf",
      "outputs": [
        {
          "internalType": "uint256",
          "name": "",
          "type": "uint256"
        }
      ],
      "stateMutability": "view",
      "type": "function",
      "constant": true
    },
    {
      "inputs": [
        {
          "internalType": "address",
          "name": "account",
          "type": "address"
        },
        {
          "internalType": "uint256",
          "name": "amount",
          "type": "uint256"
        }
      ],
      "name": "burn",
      "outputs": [],
      "stateMutability": "nonpayable",
      "type": "function"
    },
    {
      "inputs": [],
      "name": "decimals",
      "outputs": [
        {
          "internalType": "uint8",
          "name": "",
          "type": "uint8"
        }
      ],
      "stateMutability": "view",
      "type": "function",
      "constant": true
    },
    {
      "inputs": [
        {
          "internalType": "address",
          "name": "spender",
          "type": "address"
        },
        {
          "internalType": "uint256",
          "name": "subtractedValue",
          "type": "uint256"
        }
      ],
      "name": "decreaseAllowance",
      "outputs": [
        {
          "internalType": "bool",
          "name": "",
          "type": "bool"
        }
      ],
      "stateMutability": "nonpayable",
      "type": "function"
    },
    {
      "inputs": [
        {
          "internalType": "address",
          "name": "spender",
          "type": "address"
        },
        {
          "internalType": "uint256",
          "name": "addedValue",
          "type": "uint256"
        }
      ],
      "name": "increaseAllowance",
      "outputs": [
        {
          "internalType": "bool",
          "name": "",
          "type": "bool"
        }
      ],
      "stateMutability": "nonpayable",
      "type": "function"
    },
    {
      "inputs": [
        {
          "internalType": "address",
          "name": "account",
          "type": "address"
        },
        {
          "internalType": "uint256",
          "name": "amount",
          "type": "uint256"
        }
      ],
      "name": "mint",
      "outputs": [],
      "stateMutability": "nonpayable",
      "type": "function"
    },
    {
      "inputs": [],
      "name": "name",
      "outputs": [
        {
          "internalType": "string",
          "name": "",
          "type": "string"
        }
      ],
      "stateMutability": "view",
      "type": "function",
      "constant": true
    },
    {
      "inputs": [],
      "name": "owner",
      "outputs": [
        {
          "internalType": "address",
          "name": "",
          "type": "address"
        }
      ],
      "stateMutability": "view",
      "type": "function",
      "constant": true
    },
    {
      "inputs": [],
      "name": "renounceOwnership",
      "outputs": [],
      "stateMutability": "nonpayable",
      "type": "function"
    },
    {
      "inputs": [],
      "name": "symbol",
      "outputs": [
        {
          "internalType": "string",
          "name": "",
          "type": "string"
        }
      ],
      "stateMutability": "view",
      "type": "function",
      "constant": true
    },
    {
      "inputs": [],
      "name": "totalSupply",
      "outputs": [
        {
          "internalType": "uint256",
          "name": "",
          "type": "uint256"
        }
      ],
      "stateMutability": "view",
      "type": "function",
      "constant": true
    },
    {
      "inputs": [
        {
          "internalType": "address",
          "name": "recipient",
          "type": "address"
        },
        {
          "internalType": "uint256",
          "name": "amount",
          "type": "uint256"
        }
      ],
      "name": "transfer",
      "outputs": [
        {
          "internalType": "bool",
          "name": "",
          "type": "bool"
        }
      ],
      "stateMutability": "nonpayable",
      "type": "function"
    },
    {
      "inputs": [
        {
          "internalType": "address",
          "name": "sender",
          "type": "address"
        },
        {
          "internalType": "address",
          "name": "recipient",
          "type": "address"
        },
        {
          "internalType": "uint256",
          "name": "amount",
          "type": "uint256"
        }
      ],
      "name": "transferFrom",
      "outputs": [
        {
          "internalType": "bool",
          "name": "",
          "type": "bool"
        }
      ],
      "stateMutability": "nonpayable",
      "type": "function"
    },
    {
      "inputs": [
        {
          "internalType": "address",
          "name": "newOwner",
          "type": "address"
        }
      ],
      "name": "transferOwnership",
      "outputs": [],
      "stateMutability": "nonpayable",
      "type": "function"
    },
    {
      "inputs": [
        {
          "internalType": "bytes32[]",
          "name": "proposalNames",
          "type": "bytes32[]"
        }
      ],
      "name": "createBallot",
      "outputs": [],
      "stateMutability": "nonpayable",
      "type": "function"
    },
    {
      "inputs": [
        {
          "internalType": "uint256",
          "name": "ballotNum",
          "type": "uint256"
        },
        {
          "internalType": "address",
          "name": "voter",
          "type": "address"
        },
        {
          "internalType": "uint256",
          "name": "amount",
          "type": "uint256"
        }
      ],
      "name": "addRightToVote",
      "outputs": [],
      "stateMutability": "nonpayable",
      "type": "function"
    },
    {
      "inputs": [
        {
          "internalType": "uint256",
          "name": "ballotNum",
          "type": "uint256"
        },
        {
          "internalType": "uint256",
          "name": "proposal",
          "type": "uint256"
        }
      ],
      "name": "vote",
      "outputs": [],
      "stateMutability": "nonpayable",
      "type": "function"
    },
    {
      "inputs": [],
      "name": "LengthOfBallots",
      "outputs": [
        {
          "internalType": "uint256",
          "name": "length_",
          "type": "uint256"
        }
      ],
      "stateMutability": "view",
      "type": "function",
      "constant": true
    },
    {
      "inputs": [
        {
          "internalType": "uint256",
          "name": "ballotNum",
          "type": "uint256"
        }
      ],
      "name": "LengthOfProposals",
      "outputs": [
        {
          "internalType": "uint256",
          "name": "length_",
          "type": "uint256"
        }
      ],
      "stateMutability": "view",
      "type": "function",
      "constant": true
    },
    {
      "inputs": [
        {
          "internalType": "uint256",
          "name": "ballotNum",
          "type": "uint256"
        },
        {
          "internalType": "uint256",
          "name": "proposalNum",
          "type": "uint256"
        }
      ],
      "name": "getterProposals",
      "outputs": [
        {
          "internalType": "bytes32",
          "name": "name_",
          "type": "bytes32"
        },
        {
          "internalType": "uint256",
          "name": "voteCount_",
          "type": "uint256"
        }
      ],
      "stateMutability": "view",
      "type": "function",
      "constant": true
    },
    {
      "inputs": [
        {
          "internalType": "uint256",
          "name": "ballotNum",
          "type": "uint256"
        },
        {
          "internalType": "address",
          "name": "voterNum",
          "type": "address"
        }
      ],
      "name": "getterVoters",
      "outputs": [
        {
          "internalType": "uint256",
          "name": "weight_",
          "type": "uint256"
        },
        {
          "internalType": "bool",
          "name": "voted_",
          "type": "bool"
        },
        {
          "internalType": "uint256",
          "name": "vote_",
          "type": "uint256"
        }
      ],
      "stateMutability": "view",
      "type": "function",
      "constant": true
    },
    {
      "inputs": [
        {
          "internalType": "uint256",
          "name": "ballotNum",
          "type": "uint256"
        }
      ],
      "name": "winningProposal",
      "outputs": [
        {
          "internalType": "uint256",
          "name": "winningProposal_",
          "type": "uint256"
        }
      ],
      "stateMutability": "view",
      "type": "function",
      "constant": true
    },
    {
      "inputs": [
        {
          "internalType": "uint256",
          "name": "ballotNum",
          "type": "uint256"
        }
      ],
      "name": "winnerName",
      "outputs": [
        {
          "internalType": "bytes32",
          "name": "winnerName_",
          "type": "bytes32"
        }
      ],
      "stateMutability": "view",
      "type": "function",
      "constant": true
    },
    {
      "inputs": [
        {
          "internalType": "string",
          "name": "source",
          "type": "string"
        }
      ],
      "name": "stringToBytes32",
      "outputs": [
        {
          "internalType": "bytes32",
          "name": "result",
          "type": "bytes32"
        }
      ],
      "stateMutability": "pure",
      "type": "function",
      "constant": true
    }
  ],
  "bytecode": "0x608060405260405162002de238038062002de2833981810160405260608110156200002957600080fd5b81019080805160405193929190846401000000008211156200004a57600080fd5b838201915060208201858111156200006157600080fd5b82518660018202830111640100000000821117156200007f57600080fd5b8083526020830192505050908051906020019080838360005b83811015620000b557808201518184015260208101905062000098565b50505050905090810190601f168015620000e35780820380516001836020036101000a031916815260200191505b50604052602001805160405193929190846401000000008211156200010757600080fd5b838201915060208201858111156200011e57600080fd5b82518660018202830111640100000000821117156200013c57600080fd5b8083526020830192505050908051906020019080838360005b838110156200017257808201518184015260208101905062000155565b50505050905090810190601f168015620001a05780820380516001836020036101000a031916815260200191505b506040526020018051906020019092919050505082828282828160039080519060200190620001d192919062000585565b508060049080519060200190620001ea92919062000585565b506012600560006101000a81548160ff021916908360ff160217905550505060006200021b620002e760201b60201c565b905080600560016101000a81548173ffffffffffffffffffffffffffffffffffffffff021916908373ffffffffffffffffffffffffffffffffffffffff1602179055508073ffffffffffffffffffffffffffffffffffffffff16600073ffffffffffffffffffffffffffffffffffffffff167f8be0079c531659141344cd1fd0a4f28419497f9722a3daafe3b4186f6b6457e060405160405180910390a350620002db620002ce620002ef60201b60201c565b826200031960201b60201c565b50505050505062000634565b600033905090565b6000600560019054906101000a900473ffffffffffffffffffffffffffffffffffffffff16905090565b600073ffffffffffffffffffffffffffffffffffffffff168273ffffffffffffffffffffffffffffffffffffffff161415620003bd576040517f08c379a000000000000000000000000000000000000000000000000000000000815260040180806020018281038252601f8152602001807f45524332303a206d696e7420746f20746865207a65726f20616464726573730081525060200191505060405180910390fd5b620003d160008383620004f760201b60201c565b620003ed81600254620004fc60201b620021571790919060201c565b6002819055506200044b816000808573ffffffffffffffffffffffffffffffffffffffff1673ffffffffffffffffffffffffffffffffffffffff16815260200190815260200160002054620004fc60201b620021571790919060201c565b6000808473ffffffffffffffffffffffffffffffffffffffff1673ffffffffffffffffffffffffffffffffffffffff168152602001908152602001600020819055508173ffffffffffffffffffffffffffffffffffffffff16600073ffffffffffffffffffffffffffffffffffffffff167fddf252ad1be2c89b69c2b068fc378daa952ba7f163c4a11628f55a4df523b3ef836040518082815260200191505060405180910390a35050565b505050565b6000808284019050838110156200057b576040517f08c379a000000000000000000000000000000000000000000000000000000000815260040180806020018281038252601b8152602001807f536166654d6174683a206164646974696f6e206f766572666c6f77000000000081525060200191505060405180910390fd5b8091505092915050565b828054600181600116156101000203166002900490600052602060002090601f016020900481019282601f10620005c857805160ff1916838001178555620005f9565b82800160010185558215620005f9579182015b82811115620005f8578251825591602001919060010190620005db565b5b5090506200060891906200060c565b5090565b6200063191905b808211156200062d57600081600090555060010162000613565b5090565b90565b61279e80620006446000396000f3fe608060405234801561001057600080fd5b506004361061018e5760003560e01c80638da5cb5b116100de578063bcd60f6c11610097578063dd62ed3e11610071578063dd62ed3e14610909578063e35c938414610981578063e951a7a714610a39578063f2fde38b14610a7b5761018e565b8063bcd60f6c14610784578063cfb51928146107c6578063dd53ffac146108955761018e565b80638da5cb5b1461056557806395d89b41146105af5780639dc29fac14610632578063a457c2d714610680578063a9059cbb146106e6578063b384abef1461074c5761018e565b806325a38efb1161014b57806340c10f191161012557806340c10f191461045d57806370a08231146104ab578063715018a614610503578063895131211461050d5761018e565b806325a38efb146103b5578063313ce567146103d357806339509351146103f75761018e565b806306fdde0314610193578063095ea7b31461021657806318160ddd1461027c5780631ad5ee671461029a578063205758ba146102ed57806323b872dd1461032f575b600080fd5b61019b610abf565b6040518080602001828103825283818151815260200191508051906020019080838360005b838110156101db5780820151818401526020810190506101c0565b50505050905090810190601f1680156102085780820380516001836020036101000a031916815260200191505b509250505060405180910390f35b6102626004803603604081101561022c57600080fd5b81019080803573ffffffffffffffffffffffffffffffffffffffff16906020019092919080359060200190929190505050610b61565b604051808215151515815260200191505060405180910390f35b610284610b7f565b6040518082815260200191505060405180910390f35b6102d0600480360360408110156102b057600080fd5b810190808035906020019092919080359060200190929190505050610b89565b604051808381526020018281526020019250505060405180910390f35b6103196004803603602081101561030357600080fd5b8101908080359060200190929190505050610bdd565b6040518082815260200191505060405180910390f35b61039b6004803603606081101561034557600080fd5b81019080803573ffffffffffffffffffffffffffffffffffffffff169060200190929190803573ffffffffffffffffffffffffffffffffffffffff16906020019092919080359060200190929190505050610c29565b604051808215151515815260200191505060405180910390f35b6103bd610d02565b6040518082815260200191505060405180910390f35b6103db610d0f565b604051808260ff1660ff16815260200191505060405180910390f35b6104436004803603604081101561040d57600080fd5b81019080803573ffffffffffffffffffffffffffffffffffffffff16906020019092919080359060200190929190505050610d26565b604051808215151515815260200191505060405180910390f35b6104a96004803603604081101561047357600080fd5b81019080803573ffffffffffffffffffffffffffffffffffffffff16906020019092919080359060200190929190505050610dd9565b005b6104ed600480360360208110156104c157600080fd5b81019080803573ffffffffffffffffffffffffffffffffffffffff169060200190929190505050610eb1565b6040518082815260200191505060405180910390f35b61050b610ef9565b005b6105636004803603606081101561052357600080fd5b8101908080359060200190929190803573ffffffffffffffffffffffffffffffffffffffff16906020019092919080359060200190929190505050611084565b005b61056d611294565b604051808273ffffffffffffffffffffffffffffffffffffffff1673ffffffffffffffffffffffffffffffffffffffff16815260200191505060405180910390f35b6105b76112be565b6040518080602001828103825283818151815260200191508051906020019080838360005b838110156105f75780820151818401526020810190506105dc565b50505050905090810190601f1680156106245780820380516001836020036101000a031916815260200191505b509250505060405180910390f35b61067e6004803603604081101561064857600080fd5b81019080803573ffffffffffffffffffffffffffffffffffffffff16906020019092919080359060200190929190505050611360565b005b6106cc6004803603604081101561069657600080fd5b81019080803573ffffffffffffffffffffffffffffffffffffffff16906020019092919080359060200190929190505050611438565b604051808215151515815260200191505060405180910390f35b610732600480360360408110156106fc57600080fd5b81019080803573ffffffffffffffffffffffffffffffffffffffff16906020019092919080359060200190929190505050611505565b604051808215151515815260200191505060405180910390f35b6107826004803603604081101561076257600080fd5b810190808035906020019092919080359060200190929190505050611523565b005b6107b06004803603602081101561079a57600080fd5b81019080803590602001909291905050506116ed565b6040518082815260200191505060405180910390f35b61087f600480360360208110156107dc57600080fd5b81019080803590602001906401000000008111156107f957600080fd5b82018360208201111561080b57600080fd5b8035906020019184600183028401116401000000008311171561082d57600080fd5b91908080601f016020809104026020016040519081016040528093929190818152602001838380828437600081840152601f19601f82011690508083019250505050505050919291929050505061178b565b6040518082815260200191505060405180910390f35b6108e1600480360360408110156108ab57600080fd5b8101908080359060200190929190803573ffffffffffffffffffffffffffffffffffffffff1690602001909291905050506117b6565b6040518084815260200183151515158152602001828152602001935050505060405180910390f35b61096b6004803603604081101561091f57600080fd5b81019080803573ffffffffffffffffffffffffffffffffffffffff169060200190929190803573ffffffffffffffffffffffffffffffffffffffff169060200190929190505050611843565b6040518082815260200191505060405180910390f35b610a376004803603602081101561099757600080fd5b81019080803590602001906401000000008111156109b457600080fd5b8201836020820111156109c657600080fd5b803590602001918460208302840111640100000000831117156109e857600080fd5b919080806020026020016040519081016040528093929190818152602001838360200280828437600081840152601f19601f8201169050808301925050505050505091929192905050506118ca565b005b610a6560048036036020811015610a4f57600080fd5b810190808035906020019092919050505061199c565b6040518082815260200191505060405180910390f35b610abd60048036036020811015610a9157600080fd5b81019080803573ffffffffffffffffffffffffffffffffffffffff1690602001909291905050506119c7565b005b606060038054600181600116156101000203166002900480601f016020809104026020016040519081016040528092919081815260200182805460018160011615610100020316600290048015610b575780601f10610b2c57610100808354040283529160200191610b57565b820191906000526020600020905b815481529060010190602001808311610b3a57829003601f168201915b5050505050905090565b6000610b75610b6e611bd7565b8484611bdf565b6001905092915050565b6000600254905090565b600080600060068581548110610b9b57fe5b90600052602060002090600202016000018481548110610bb757fe5b906000526020600020906002020190508060000154925080600101549150509250929050565b600060068281548110610bec57fe5b9060005260206000209060020201600001610c06836116ed565b81548110610c1057fe5b9060005260206000209060020201600001549050919050565b6000610c36848484611dd6565b610cf784610c42611bd7565b610cf2856040518060600160405280602881526020016126b260289139600160008b73ffffffffffffffffffffffffffffffffffffffff1673ffffffffffffffffffffffffffffffffffffffff1681526020019081526020016000206000610ca8611bd7565b73ffffffffffffffffffffffffffffffffffffffff1673ffffffffffffffffffffffffffffffffffffffff168152602001908152602001600020546120979092919063ffffffff16565b611bdf565b600190509392505050565b6000600680549050905090565b6000600560009054906101000a900460ff16905090565b6000610dcf610d33611bd7565b84610dca8560016000610d44611bd7565b73ffffffffffffffffffffffffffffffffffffffff1673ffffffffffffffffffffffffffffffffffffffff16815260200190815260200160002060008973ffffffffffffffffffffffffffffffffffffffff1673ffffffffffffffffffffffffffffffffffffffff1681526020019081526020016000205461215790919063ffffffff16565b611bdf565b6001905092915050565b610de1611bd7565b73ffffffffffffffffffffffffffffffffffffffff16600560019054906101000a900473ffffffffffffffffffffffffffffffffffffffff1673ffffffffffffffffffffffffffffffffffffffff1614610ea3576040517f08c379a00000000000000000000000000000000000000000000000000000000081526004018080602001828103825260208152602001807f4f776e61626c653a2063616c6c6572206973206e6f7420746865206f776e657281525060200191505060405180910390fd5b610ead82826121df565b5050565b60008060008373ffffffffffffffffffffffffffffffffffffffff1673ffffffffffffffffffffffffffffffffffffffff168152602001908152602001600020549050919050565b610f01611bd7565b73ffffffffffffffffffffffffffffffffffffffff16600560019054906101000a900473ffffffffffffffffffffffffffffffffffffffff1673ffffffffffffffffffffffffffffffffffffffff1614610fc3576040517f08c379a00000000000000000000000000000000000000000000000000000000081526004018080602001828103825260208152602001807f4f776e61626c653a2063616c6c6572206973206e6f7420746865206f776e657281525060200191505060405180910390fd5b600073ffffffffffffffffffffffffffffffffffffffff16600560019054906101000a900473ffffffffffffffffffffffffffffffffffffffff1673ffffffffffffffffffffffffffffffffffffffff167f8be0079c531659141344cd1fd0a4f28419497f9722a3daafe3b4186f6b6457e060405160405180910390a36000600560016101000a81548173ffffffffffffffffffffffffffffffffffffffff021916908373ffffffffffffffffffffffffffffffffffffffff160217905550565b61108c611bd7565b73ffffffffffffffffffffffffffffffffffffffff16600560019054906101000a900473ffffffffffffffffffffffffffffffffffffffff1673ffffffffffffffffffffffffffffffffffffffff161461114e576040517f08c379a00000000000000000000000000000000000000000000000000000000081526004018080602001828103825260208152602001807f4f776e61626c653a2063616c6c6572206973206e6f7420746865206f776e657281525060200191505060405180910390fd5b60006006848154811061115d57fe5b906000526020600020906002020190508060010160008473ffffffffffffffffffffffffffffffffffffffff1673ffffffffffffffffffffffffffffffffffffffff16815260200190815260200160002060010160009054906101000a900460ff1615611232576040517f08c379a00000000000000000000000000000000000000000000000000000000081526004018080602001828103825260188152602001807f54686520766f74657220616c726561647920766f7465642e000000000000000081525060200191505060405180910390fd5b61123c8383611360565b818160010160008573ffffffffffffffffffffffffffffffffffffffff1673ffffffffffffffffffffffffffffffffffffffff1681526020019081526020016000206000016000828254019250508190555050505050565b6000600560019054906101000a900473ffffffffffffffffffffffffffffffffffffffff16905090565b606060048054600181600116156101000203166002900480601f0160208091040260200160405190810160405280929190818152602001828054600181600116156101000203166002900480156113565780601f1061132b57610100808354040283529160200191611356565b820191906000526020600020905b81548152906001019060200180831161133957829003601f168201915b5050505050905090565b611368611bd7565b73ffffffffffffffffffffffffffffffffffffffff16600560019054906101000a900473ffffffffffffffffffffffffffffffffffffffff1673ffffffffffffffffffffffffffffffffffffffff161461142a576040517f08c379a00000000000000000000000000000000000000000000000000000000081526004018080602001828103825260208152602001807f4f776e61626c653a2063616c6c6572206973206e6f7420746865206f776e657281525060200191505060405180910390fd5b61143482826123a6565b5050565b60006114fb611445611bd7565b846114f685604051806060016040528060258152602001612744602591396001600061146f611bd7565b73ffffffffffffffffffffffffffffffffffffffff1673ffffffffffffffffffffffffffffffffffffffff16815260200190815260200160002060008a73ffffffffffffffffffffffffffffffffffffffff1673ffffffffffffffffffffffffffffffffffffffff168152602001908152602001600020546120979092919063ffffffff16565b611bdf565b6001905092915050565b6000611519611512611bd7565b8484611dd6565b6001905092915050565b60006006838154811061153257fe5b9060005260206000209060020201905060008160010160003373ffffffffffffffffffffffffffffffffffffffff1673ffffffffffffffffffffffffffffffffffffffff1681526020019081526020016000209050600081600001541415611602576040517f08c379a00000000000000000000000000000000000000000000000000000000081526004018080602001828103825260148152602001807f486173206e6f20726967687420746f20766f746500000000000000000000000081525060200191505060405180910390fd5b8060010160009054906101000a900460ff1615611687576040517f08c379a000000000000000000000000000000000000000000000000000000000815260040180806020018281038252600e8152602001807f416c726561647920766f7465642e00000000000000000000000000000000000081525060200191505060405180910390fd5b60018160010160006101000a81548160ff0219169083151502179055508281600201819055506116ba816000015461256a565b8260000184815481106116c957fe5b90600052602060002090600202016001016000828254019250508190555050505050565b600080600683815481106116fd57fe5b90600052602060002090600202019050600080905060008090505b8260000180549050811015611783578183600001828154811061173757fe5b90600052602060002090600202016001015411156117765782600001818154811061175e57fe5b90600052602060002090600202016001015491508093505b8080600101915050611718565b505050919050565b600060608290506000815114156117a8576000801b9150506117b1565b60208301519150505b919050565b600080600080600686815481106117c957fe5b906000526020600020906002020160010160008673ffffffffffffffffffffffffffffffffffffffff1673ffffffffffffffffffffffffffffffffffffffff1681526020019081526020016000209050806000015493508060010160009054906101000a900460ff16925080600201549150509250925092565b6000600160008473ffffffffffffffffffffffffffffffffffffffff1673ffffffffffffffffffffffffffffffffffffffff16815260200190815260200160002060008373ffffffffffffffffffffffffffffffffffffffff1673ffffffffffffffffffffffffffffffffffffffff16815260200190815260200160002054905092915050565b60066001816001815401808255809150500390600052602060002090505060006006600160068054905003815481106118ff57fe5b9060005260206000209060020201905060008090505b82518110156119975781600001604051806040016040528085848151811061193957fe5b6020026020010151815260200160008152509080600181540180825580915050600190039060005260206000209060020201600090919091909150600082015181600001556020820151816001015550508080600101915050611915565b505050565b6000600682815481106119ab57fe5b9060005260206000209060020201600001805490509050919050565b6119cf611bd7565b73ffffffffffffffffffffffffffffffffffffffff16600560019054906101000a900473ffffffffffffffffffffffffffffffffffffffff1673ffffffffffffffffffffffffffffffffffffffff1614611a91576040517f08c379a00000000000000000000000000000000000000000000000000000000081526004018080602001828103825260208152602001807f4f776e61626c653a2063616c6c6572206973206e6f7420746865206f776e657281525060200191505060405180910390fd5b600073ffffffffffffffffffffffffffffffffffffffff168173ffffffffffffffffffffffffffffffffffffffff161415611b17576040517f08c379a00000000000000000000000000000000000000000000000000000000081526004018080602001828103825260268152602001806126446026913960400191505060405180910390fd5b8073ffffffffffffffffffffffffffffffffffffffff16600560019054906101000a900473ffffffffffffffffffffffffffffffffffffffff1673ffffffffffffffffffffffffffffffffffffffff167f8be0079c531659141344cd1fd0a4f28419497f9722a3daafe3b4186f6b6457e060405160405180910390a380600560016101000a81548173ffffffffffffffffffffffffffffffffffffffff021916908373ffffffffffffffffffffffffffffffffffffffff16021790555050565b600033905090565b600073ffffffffffffffffffffffffffffffffffffffff168373ffffffffffffffffffffffffffffffffffffffff161415611c65576040517f08c379a00000000000000000000000000000000000000000000000000000000081526004018080602001828103825260248152602001806127206024913960400191505060405180910390fd5b600073ffffffffffffffffffffffffffffffffffffffff168273ffffffffffffffffffffffffffffffffffffffff161415611ceb576040517f08c379a000000000000000000000000000000000000000000000000000000000815260040180806020018281038252602281526020018061266a6022913960400191505060405180910390fd5b80600160008573ffffffffffffffffffffffffffffffffffffffff1673ffffffffffffffffffffffffffffffffffffffff16815260200190815260200160002060008473ffffffffffffffffffffffffffffffffffffffff1673ffffffffffffffffffffffffffffffffffffffff168152602001908152602001600020819055508173ffffffffffffffffffffffffffffffffffffffff168373ffffffffffffffffffffffffffffffffffffffff167f8c5be1e5ebec7d5bd14f71427d1e84f3dd0314c0f7b2291e5b200ac8c7c3b925836040518082815260200191505060405180910390a3505050565b600073ffffffffffffffffffffffffffffffffffffffff168373ffffffffffffffffffffffffffffffffffffffff161415611e5c576040517f08c379a00000000000000000000000000000000000000000000000000000000081526004018080602001828103825260258152602001806126fb6025913960400191505060405180910390fd5b600073ffffffffffffffffffffffffffffffffffffffff168273ffffffffffffffffffffffffffffffffffffffff161415611ee2576040517f08c379a00000000000000000000000000000000000000000000000000000000081526004018080602001828103825260238152602001806125ff6023913960400191505060405180910390fd5b611eed8383836125af565b611f588160405180606001604052806026815260200161268c602691396000808773ffffffffffffffffffffffffffffffffffffffff1673ffffffffffffffffffffffffffffffffffffffff168152602001908152602001600020546120979092919063ffffffff16565b6000808573ffffffffffffffffffffffffffffffffffffffff1673ffffffffffffffffffffffffffffffffffffffff16815260200190815260200160002081905550611feb816000808573ffffffffffffffffffffffffffffffffffffffff1673ffffffffffffffffffffffffffffffffffffffff1681526020019081526020016000205461215790919063ffffffff16565b6000808473ffffffffffffffffffffffffffffffffffffffff1673ffffffffffffffffffffffffffffffffffffffff168152602001908152602001600020819055508173ffffffffffffffffffffffffffffffffffffffff168373ffffffffffffffffffffffffffffffffffffffff167fddf252ad1be2c89b69c2b068fc378daa952ba7f163c4a11628f55a4df523b3ef836040518082815260200191505060405180910390a3505050565b6000838311158290612144576040517f08c379a00000000000000000000000000000000000000000000000000000000081526004018080602001828103825283818151815260200191508051906020019080838360005b838110156121095780820151818401526020810190506120ee565b50505050905090810190601f1680156121365780820380516001836020036101000a031916815260200191505b509250505060405180910390fd5b5060008385039050809150509392505050565b6000808284019050838110156121d5576040517f08c379a000000000000000000000000000000000000000000000000000000000815260040180806020018281038252601b8152602001807f536166654d6174683a206164646974696f6e206f766572666c6f77000000000081525060200191505060405180910390fd5b8091505092915050565b600073ffffffffffffffffffffffffffffffffffffffff168273ffffffffffffffffffffffffffffffffffffffff161415612282576040517f08c379a000000000000000000000000000000000000000000000000000000000815260040180806020018281038252601f8152602001807f45524332303a206d696e7420746f20746865207a65726f20616464726573730081525060200191505060405180910390fd5b61228e600083836125af565b6122a38160025461215790919063ffffffff16565b6002819055506122fa816000808573ffffffffffffffffffffffffffffffffffffffff1673ffffffffffffffffffffffffffffffffffffffff1681526020019081526020016000205461215790919063ffffffff16565b6000808473ffffffffffffffffffffffffffffffffffffffff1673ffffffffffffffffffffffffffffffffffffffff168152602001908152602001600020819055508173ffffffffffffffffffffffffffffffffffffffff16600073ffffffffffffffffffffffffffffffffffffffff167fddf252ad1be2c89b69c2b068fc378daa952ba7f163c4a11628f55a4df523b3ef836040518082815260200191505060405180910390a35050565b600073ffffffffffffffffffffffffffffffffffffffff168273ffffffffffffffffffffffffffffffffffffffff16141561242c576040517f08c379a00000000000000000000000000000000000000000000000000000000081526004018080602001828103825260218152602001806126da6021913960400191505060405180910390fd5b612438826000836125af565b6124a381604051806060016040528060228152602001612622602291396000808673ffffffffffffffffffffffffffffffffffffffff1673ffffffffffffffffffffffffffffffffffffffff168152602001908152602001600020546120979092919063ffffffff16565b6000808473ffffffffffffffffffffffffffffffffffffffff1673ffffffffffffffffffffffffffffffffffffffff168152602001908152602001600020819055506124fa816002546125b490919063ffffffff16565b600281905550600073ffffffffffffffffffffffffffffffffffffffff168273ffffffffffffffffffffffffffffffffffffffff167fddf252ad1be2c89b69c2b068fc378daa952ba7f163c4a11628f55a4df523b3ef836040518082815260200191505060405180910390a35050565b6000806002600184018161257a57fe5b0490508291505b818110156125a95780915060028182858161259857fe5b0401816125a157fe5b049050612581565b50919050565b505050565b60006125f683836040518060400160405280601e81526020017f536166654d6174683a207375627472616374696f6e206f766572666c6f770000815250612097565b90509291505056fe45524332303a207472616e7366657220746f20746865207a65726f206164647265737345524332303a206275726e20616d6f756e7420657863656564732062616c616e63654f776e61626c653a206e6577206f776e657220697320746865207a65726f206164647265737345524332303a20617070726f766520746f20746865207a65726f206164647265737345524332303a207472616e7366657220616d6f756e7420657863656564732062616c616e636545524332303a207472616e7366657220616d6f756e74206578636565647320616c6c6f77616e636545524332303a206275726e2066726f6d20746865207a65726f206164647265737345524332303a207472616e736665722066726f6d20746865207a65726f206164647265737345524332303a20617070726f76652066726f6d20746865207a65726f206164647265737345524332303a2064656372656173656420616c6c6f77616e63652062656c6f77207a65726fa2646970667358221220dcebf437a18714587b4d306d56da68d1ae99a098f98595d574cae8b5a7c1393764736f6c63430006020033",
  "source": "pragma solidity ^0.6.0;\n\nimport './cgt.sol';\n\ncontract Voting is CGT{\n\n    struct Voter {\n        uint    weight;     // weight is accumulated by delegation\n        bool    voted;      // if true, that person already voted\n        uint    vote;       // index of the voted proposal\n    }\n\n    struct Proposal {\n        // If you can limit the length to a certain number of bytes, \n        // always use one of bytes1 to bytes32 because they are much cheaper\n        bytes32 name;       // short name (up to 32 bytes)\n        uint    voteCount;  // number of accumulated votes\n    }\n\n    struct Ballot {\n        Proposal[]                      proposals;\n        mapping(address => Voter)       voters;\n    }\n\n    Ballot[] ballots;\n\n    constructor (\n        string memory name,\n        string memory symbol,\n        uint256 initialBalance\n    ) public payable CGT(name, symbol, initialBalance) {\n        // ...\n    }\n\n    function createBallot(bytes32[] memory proposalNames) public {\n        ballots.push();\n        Ballot storage ballot = ballots[ballots.length - 1];\n\n        // Default value is zero-indexed proposal (pre-voted) .\n        for (uint i = 0; i < proposalNames.length; i++) {\n            ballot.proposals.push(Proposal({\n                name: proposalNames[i],\n                voteCount: 0\n            }));\n        }\n    }\n\n    function addRightToVote(uint ballotNum, address voter, uint amount) public onlyOwner {        \n        Ballot storage ballot = ballots[ballotNum];\n\n        // Should be able to vote once only for QV.\n        require(!ballot.voters[voter].voted, \"The voter already voted.\");\n\n        burn(voter, amount);\n        ballot.voters[voter].weight += amount;\n    }\n\n    function vote(uint ballotNum, uint proposal) public {\n        Ballot storage ballot = ballots[ballotNum];\n        Voter storage sender = ballot.voters[msg.sender];\n\n        require(sender.weight != 0, \"Has no right to vote\");\n        require(!sender.voted, \"Already voted.\");\n        sender.voted = true;\n        sender.vote = proposal;\n\n        // If 'proposal' is out of the range of the array,\n        // this will throw automatically and revert all changes.\n        // ballots[ballot].proposals[proposal].voteCount += sender.weight;\n        \n        // Quadratic Voting\n        ballot.proposals[proposal].voteCount += _sqrt(sender.weight);\n    }\n\n    function LengthOfBallots() public view returns (uint length_) {\n        length_ = ballots.length;\n    }\n\n    function LengthOfProposals(uint ballotNum) public view returns (uint length_) {\n        length_ = ballots[ballotNum].proposals.length;\n    }\n\n    function getterProposals(uint ballotNum, uint proposalNum) public view\n            returns (bytes32 name_, uint voteCount_)\n    {\n        Proposal storage proposal = ballots[ballotNum].proposals[proposalNum];\n        name_ = proposal.name;\n        voteCount_ = proposal.voteCount;\n    }\n\n    function getterVoters(uint ballotNum, address voterNum) public view\n            returns (uint weight_, bool voted_, uint vote_)\n    {\n        Voter storage voter = ballots[ballotNum].voters[voterNum];\n        weight_ = voter.weight;\n        voted_ = voter.voted;\n        vote_ = voter.vote;\n    }\n\n    function winningProposal(uint ballotNum) public view\n            returns (uint winningProposal_)\n    {\n        Ballot storage ballot = ballots[ballotNum];\n\n        uint winningVoteCount = 0;\n        for (uint p = 0; p < ballot.proposals.length; p++) {\n            if (ballot.proposals[p].voteCount > winningVoteCount) {\n                winningVoteCount = ballot.proposals[p].voteCount;\n                winningProposal_ = p;\n            }\n        }\n    }\n\n    function winnerName(uint ballotNum) public view\n            returns (bytes32 winnerName_)\n    {\n        winnerName_ = ballots[ballotNum].proposals[winningProposal(ballotNum)].name;\n    }\n\n    function _sqrt(uint x) internal pure\n            returns (uint y)\n    {\n        uint z = (x + 1) / 2;\n        y = x;\n        while (z < y) {\n            y = z;\n            z = (x / z + z) / 2;\n        }\n    }\n\n    // https://blockchangers.github.io/solidity-converter-online/\n    function stringToBytes32(string memory source) public pure\n            returns (bytes32 result)\n    {\n        bytes memory tempEmptyStringTest = bytes(source);\n        if (tempEmptyStringTest.length == 0) { return 0x0; }\n        assembly { result := mload(add(source, 32)) }\n    }\n}\n",
  "sourcePath": "/Users/lukepark/Desktop/CURG/implementation/governance-token/contracts/Voting.sol",
  "compiler": {
    "name": "solc",
    "version": "0.6.2+commit.bacdbe57.Emscripten.clang"
  },
  "schemaVersion": "3.2.5",
  "updatedAt": "2020-09-29T10:57:52.073Z",
  "networkType": "ethereum",
  "devdoc": {
    "methods": {
      "allowance(address,address)": {
        "details": "See {IERC20-allowance}."
      },
      "approve(address,uint256)": {
        "details": "See {IERC20-approve}.     * Requirements:     * - `spender` cannot be the zero address."
      },
      "balanceOf(address)": {
        "details": "See {IERC20-balanceOf}."
      },
      "decimals()": {
        "details": "Returns the number of decimals used to get its user representation. For example, if `decimals` equals `2`, a balance of `505` tokens should be displayed to a user as `5,05` (`505 / 10 ** 2`).     * Tokens usually opt for a value of 18, imitating the relationship between Ether and Wei. This is the value {ERC20} uses, unless {_setupDecimals} is called.     * NOTE: This information is only used for _display_ purposes: it in no way affects any of the arithmetic of the contract, including {IERC20-balanceOf} and {IERC20-transfer}."
      },
      "decreaseAllowance(address,uint256)": {
        "details": "Atomically decreases the allowance granted to `spender` by the caller.     * This is an alternative to {approve} that can be used as a mitigation for problems described in {IERC20-approve}.     * Emits an {Approval} event indicating the updated allowance.     * Requirements:     * - `spender` cannot be the zero address. - `spender` must have allowance for the caller of at least `subtractedValue`."
      },
      "increaseAllowance(address,uint256)": {
        "details": "Atomically increases the allowance granted to `spender` by the caller.     * This is an alternative to {approve} that can be used as a mitigation for problems described in {IERC20-approve}.     * Emits an {Approval} event indicating the updated allowance.     * Requirements:     * - `spender` cannot be the zero address."
      },
      "name()": {
        "details": "Returns the name of the token."
      },
      "owner()": {
        "details": "Returns the address of the current owner."
      },
      "renounceOwnership()": {
        "details": "Leaves the contract without owner. It will not be possible to call `onlyOwner` functions anymore. Can only be called by the current owner.     * NOTE: Renouncing ownership will leave the contract without an owner, thereby removing any functionality that is only available to the owner."
      },
      "symbol()": {
        "details": "Returns the symbol of the token, usually a shorter version of the name."
      },
      "totalSupply()": {
        "details": "See {IERC20-totalSupply}."
      },
      "transfer(address,uint256)": {
        "details": "See {IERC20-transfer}.     * Requirements:     * - `recipient` cannot be the zero address. - the caller must have a balance of at least `amount`."
      },
      "transferFrom(address,address,uint256)": {
        "details": "See {IERC20-transferFrom}.     * Emits an {Approval} event indicating the updated allowance. This is not required by the EIP. See the note at the beginning of {ERC20};     * Requirements: - `sender` and `recipient` cannot be the zero address. - `sender` must have a balance of at least `amount`. - the caller must have allowance for ``sender``'s tokens of at least `amount`."
      },
      "transferOwnership(address)": {
        "details": "Transfers ownership of the contract to a new account (`newOwner`). Can only be called by the current owner."
      }
    }
  },
  "userdoc": {
    "methods": {}
  }
}